{
  "contractName": "DrugVerify",
  "abi": [
    {
      "inputs": [
        {
          "internalType": "address",
          "name": "",
          "type": "address"
        }
      ],
      "name": "drugs",
      "outputs": [
        {
          "internalType": "bool",
          "name": "drug_id",
          "type": "bool"
        },
        {
          "internalType": "string",
          "name": "drug_name",
          "type": "string"
        },
        {
          "internalType": "string",
          "name": "drug_info_json",
          "type": "string"
        },
        {
          "internalType": "string",
          "name": "drug_status",
          "type": "string"
        },
        {
          "internalType": "bool",
          "name": "isSold",
          "type": "bool"
        },
        {
          "internalType": "address",
          "name": "manfacturer",
          "type": "address"
        },
        {
          "internalType": "address",
          "name": "distributer",
          "type": "address"
        },
        {
          "internalType": "address",
          "name": "verifier",
          "type": "address"
        }
      ],
      "stateMutability": "view",
      "type": "function",
      "constant": true
    },
    {
      "inputs": [],
      "name": "no_dis_drugs_index",
      "outputs": [
        {
          "internalType": "uint256",
          "name": "",
          "type": "uint256"
        }
      ],
      "stateMutability": "view",
      "type": "function",
      "constant": true
    },
    {
      "inputs": [],
      "name": "no_verifier_drugs_index",
      "outputs": [
        {
          "internalType": "uint256",
          "name": "",
          "type": "uint256"
        }
      ],
      "stateMutability": "view",
      "type": "function",
      "constant": true
    },
    {
      "inputs": [
        {
          "internalType": "string",
          "name": "name",
          "type": "string"
        },
        {
          "internalType": "string",
          "name": "info_json",
          "type": "string"
        }
      ],
      "name": "addDrug",
      "outputs": [],
      "stateMutability": "nonpayable",
      "type": "function"
    },
    {
      "inputs": [],
      "name": "ManufacturerDrugsList",
      "outputs": [
        {
          "internalType": "address[]",
          "name": "",
          "type": "address[]"
        }
      ],
      "stateMutability": "view",
      "type": "function",
      "constant": true
    },
    {
      "inputs": [
        {
          "internalType": "address[]",
          "name": "drug_ids",
          "type": "address[]"
        },
        {
          "internalType": "address",
          "name": "_distributer",
          "type": "address"
        }
      ],
      "name": "drugDispatchToDistributer",
      "outputs": [],
      "stateMutability": "nonpayable",
      "type": "function"
    },
    {
      "inputs": [
        {
          "internalType": "address",
          "name": "_distributer",
          "type": "address"
        },
        {
          "internalType": "uint256",
          "name": "index",
          "type": "uint256"
        }
      ],
      "name": "getDistributerDrugsAddressesList",
      "outputs": [
        {
          "internalType": "address[]",
          "name": "",
          "type": "address[]"
        }
      ],
      "stateMutability": "view",
      "type": "function",
      "constant": true
    },
    {
      "inputs": [
        {
          "internalType": "address[]",
          "name": "drug_ids",
          "type": "address[]"
        },
        {
          "internalType": "address",
          "name": "_verifier",
          "type": "address"
        }
      ],
      "name": "drugDispatchToVerifier",
      "outputs": [],
      "stateMutability": "nonpayable",
      "type": "function"
    },
    {
      "inputs": [
        {
          "internalType": "address",
          "name": "_verifier",
          "type": "address"
        },
        {
          "internalType": "uint256",
          "name": "index",
          "type": "uint256"
        }
      ],
      "name": "getVerifierDrugAddressesList",
      "outputs": [
        {
          "internalType": "address[]",
          "name": "",
          "type": "address[]"
        }
      ],
      "stateMutability": "view",
      "type": "function",
      "constant": true
    }
  ],
  "bytecode": "0x60806040526000600555600060065534801561001a57600080fd5b50611b2d8061002a6000396000f3fe608060405234801561001057600080fd5b50600436106100935760003560e01c80636fb4109b116100665780636fb4109b1461013b57806372dc355a146101575780637a31b77714610175578063a3aa0edc14610191578063b15e05ad146101c157610093565b80630a34f2541461009857806318b29b03146100cf5780631f7ff041146100ed57806347cc76b11461010b575b600080fd5b6100b260048036038101906100ad919061101e565b6101dd565b6040516100c6989796959493929190611105565b60405180910390f35b6100d7610437565b6040516100e491906111b1565b60405180910390f35b6100f561043d565b604051610102919061128a565b60405180910390f35b610125600480360381019061012091906112d8565b610507565b604051610132919061128a565b60405180910390f35b61015560048036038101906101509190611460565b6105e6565b005b61015f6107c5565b60405161016c91906111b1565b60405180910390f35b61018f600480360381019061018a9190611571565b6107cb565b005b6101ab60048036038101906101a691906112d8565b610c47565b6040516101b8919061128a565b60405180910390f35b6101db60048036038101906101d69190611460565b610d26565b005b60046020528060005260406000206000915090508060000160009054906101000a900460ff169080600101805461021390611618565b80601f016020809104026020016040519081016040528092919081815260200182805461023f90611618565b801561028c5780601f106102615761010080835404028352916020019161028c565b820191906000526020600020905b81548152906001019060200180831161026f57829003601f168201915b5050505050908060020180546102a190611618565b80601f01602080910402602001604051908101604052809291908181526020018280546102cd90611618565b801561031a5780601f106102ef5761010080835404028352916020019161031a565b820191906000526020600020905b8154815290600101906020018083116102fd57829003601f168201915b50505050509080600301805461032f90611618565b80601f016020809104026020016040519081016040528092919081815260200182805461035b90611618565b80156103a85780601f1061037d576101008083540402835291602001916103a8565b820191906000526020600020905b81548152906001019060200180831161038b57829003601f168201915b5050505050908060040160009054906101000a900460ff16908060040160019054906101000a900473ffffffffffffffffffffffffffffffffffffffff16908060050160009054906101000a900473ffffffffffffffffffffffffffffffffffffffff16908060060160009054906101000a900473ffffffffffffffffffffffffffffffffffffffff16905088565b60055481565b60606000803373ffffffffffffffffffffffffffffffffffffffff1673ffffffffffffffffffffffffffffffffffffffff1681526020019081526020016000208054806020026020016040519081016040528092919081815260200182805480156104fd57602002820191906000526020600020905b8160009054906101000a900473ffffffffffffffffffffffffffffffffffffffff1673ffffffffffffffffffffffffffffffffffffffff16815260200190600101908083116104b3575b5050505050905090565b6060600160008473ffffffffffffffffffffffffffffffffffffffff1673ffffffffffffffffffffffffffffffffffffffff16815260200190815260200160002060008381526020019081526020016000208054806020026020016040519081016040528092919081815260200182805480156105d957602002820191906000526020600020905b8160009054906101000a900473ffffffffffffffffffffffffffffffffffffffff1673ffffffffffffffffffffffffffffffffffffffff168152602001906001019080831161058f575b5050505050905092915050565b60005b825181101561073f576040518060400160405280601981526020017f4469737061746368656420746f206469737472696275746572000000000000008152506004600085848151811061063f5761063e611649565b5b602002602001015173ffffffffffffffffffffffffffffffffffffffff1673ffffffffffffffffffffffffffffffffffffffff16815260200190815260200160002060030190816106909190611824565b5081600460008584815181106106a9576106a8611649565b5b602002602001015173ffffffffffffffffffffffffffffffffffffffff1673ffffffffffffffffffffffffffffffffffffffff16815260200190815260200160002060050160006101000a81548173ffffffffffffffffffffffffffffffffffffffff021916908373ffffffffffffffffffffffffffffffffffffffff160217905550808061073790611925565b9150506105e9565b5081600160008373ffffffffffffffffffffffffffffffffffffffff1673ffffffffffffffffffffffffffffffffffffffff1681526020019081526020016000206000600554815260200190815260200160002090805190602001906107a6929190610f05565b506001600560008282546107ba919061196d565b925050819055505050565b60065481565b6000600233426040516020016107e2929190611a0a565b6040516020818303038152906040526040516107fe9190611a7d565b602060405180830381855afa15801561081b573d6000803e3d6000fd5b5050506040513d601f19601f8201168201806040525081019061083e9190611aca565b60601c90506001600460008373ffffffffffffffffffffffffffffffffffffffff1673ffffffffffffffffffffffffffffffffffffffff16815260200190815260200160002060000160006101000a81548160ff02191690831515021790555082600460008373ffffffffffffffffffffffffffffffffffffffff1673ffffffffffffffffffffffffffffffffffffffff16815260200190815260200160002060010190816108ed9190611824565b5081600460008373ffffffffffffffffffffffffffffffffffffffff1673ffffffffffffffffffffffffffffffffffffffff168152602001908152602001600020600201908161093d9190611824565b506040518060400160405280600c81526020017f4d616e7566616374757265640000000000000000000000000000000000000000815250600460008373ffffffffffffffffffffffffffffffffffffffff1673ffffffffffffffffffffffffffffffffffffffff16815260200190815260200160002060030190816109c29190611824565b506000600460008373ffffffffffffffffffffffffffffffffffffffff1673ffffffffffffffffffffffffffffffffffffffff16815260200190815260200160002060040160006101000a81548160ff02191690831515021790555033600460008373ffffffffffffffffffffffffffffffffffffffff1673ffffffffffffffffffffffffffffffffffffffff16815260200190815260200160002060040160016101000a81548173ffffffffffffffffffffffffffffffffffffffff021916908373ffffffffffffffffffffffffffffffffffffffff1602179055506000600460008373ffffffffffffffffffffffffffffffffffffffff1673ffffffffffffffffffffffffffffffffffffffff16815260200190815260200160002060050160006101000a81548173ffffffffffffffffffffffffffffffffffffffff021916908373ffffffffffffffffffffffffffffffffffffffff1602179055506000600460008373ffffffffffffffffffffffffffffffffffffffff1673ffffffffffffffffffffffffffffffffffffffff16815260200190815260200160002060060160006101000a81548173ffffffffffffffffffffffffffffffffffffffff021916908373ffffffffffffffffffffffffffffffffffffffff1602179055506000803373ffffffffffffffffffffffffffffffffffffffff1673ffffffffffffffffffffffffffffffffffffffff168152602001908152602001600020819080600181540180825580915050600190039060005260206000200160009091909190916101000a81548173ffffffffffffffffffffffffffffffffffffffff021916908373ffffffffffffffffffffffffffffffffffffffff160217905550505050565b6060600260008473ffffffffffffffffffffffffffffffffffffffff1673ffffffffffffffffffffffffffffffffffffffff1681526020019081526020016000206000838152602001908152602001600020805480602002602001604051908101604052809291908181526020018280548015610d1957602002820191906000526020600020905b8160009054906101000a900473ffffffffffffffffffffffffffffffffffffffff1673ffffffffffffffffffffffffffffffffffffffff1681526020019060010190808311610ccf575b5050505050905092915050565b60005b8251811015610e7f576040518060400160405280601581526020017f4469737061746368656420746f2076657269666572000000000000000000000081525060046000858481518110610d7f57610d7e611649565b5b602002602001015173ffffffffffffffffffffffffffffffffffffffff1673ffffffffffffffffffffffffffffffffffffffff1681526020019081526020016000206003019081610dd09190611824565b508160046000858481518110610de957610de8611649565b5b602002602001015173ffffffffffffffffffffffffffffffffffffffff1673ffffffffffffffffffffffffffffffffffffffff16815260200190815260200160002060050160006101000a81548173ffffffffffffffffffffffffffffffffffffffff021916908373ffffffffffffffffffffffffffffffffffffffff1602179055508080610e7790611925565b915050610d29565b5081600260008373ffffffffffffffffffffffffffffffffffffffff1673ffffffffffffffffffffffffffffffffffffffff168152602001908152602001600020600060065481526020019081526020016000209080519060200190610ee6929190610f05565b50600160066000828254610efa919061196d565b925050819055505050565b828054828255906000526020600020908101928215610f7e579160200282015b82811115610f7d5782518260006101000a81548173ffffffffffffffffffffffffffffffffffffffff021916908373ffffffffffffffffffffffffffffffffffffffff16021790555091602001919060010190610f25565b5b509050610f8b9190610f8f565b5090565b5b80821115610fa8576000816000905550600101610f90565b5090565b6000604051905090565b600080fd5b600080fd5b600073ffffffffffffffffffffffffffffffffffffffff82169050919050565b6000610feb82610fc0565b9050919050565b610ffb81610fe0565b811461100657600080fd5b50565b60008135905061101881610ff2565b92915050565b60006020828403121561103457611033610fb6565b5b600061104284828501611009565b91505092915050565b60008115159050919050565b6110608161104b565b82525050565b600081519050919050565b600082825260208201905092915050565b60005b838110156110a0578082015181840152602081019050611085565b60008484015250505050565b6000601f19601f8301169050919050565b60006110c882611066565b6110d28185611071565b93506110e2818560208601611082565b6110eb816110ac565b840191505092915050565b6110ff81610fe0565b82525050565b60006101008201905061111b600083018b611057565b818103602083015261112d818a6110bd565b9050818103604083015261114181896110bd565b9050818103606083015261115581886110bd565b90506111646080830187611057565b61117160a08301866110f6565b61117e60c08301856110f6565b61118b60e08301846110f6565b9998505050505050505050565b6000819050919050565b6111ab81611198565b82525050565b60006020820190506111c660008301846111a2565b92915050565b600081519050919050565b600082825260208201905092915050565b6000819050602082019050919050565b61120181610fe0565b82525050565b600061121383836111f8565b60208301905092915050565b6000602082019050919050565b6000611237826111cc565b61124181856111d7565b935061124c836111e8565b8060005b8381101561127d5781516112648882611207565b975061126f8361121f565b925050600181019050611250565b5085935050505092915050565b600060208201905081810360008301526112a4818461122c565b905092915050565b6112b581611198565b81146112c057600080fd5b50565b6000813590506112d2816112ac565b92915050565b600080604083850312156112ef576112ee610fb6565b5b60006112fd85828601611009565b925050602061130e858286016112c3565b9150509250929050565b600080fd5b7f4e487b7100000000000000000000000000000000000000000000000000000000600052604160045260246000fd5b611355826110ac565b810181811067ffffffffffffffff821117156113745761137361131d565b5b80604052505050565b6000611387610fac565b9050611393828261134c565b919050565b600067ffffffffffffffff8211156113b3576113b261131d565b5b602082029050602081019050919050565b600080fd5b60006113dc6113d784611398565b61137d565b905080838252602082019050602084028301858111156113ff576113fe6113c4565b5b835b8181101561142857806114148882611009565b845260208401935050602081019050611401565b5050509392505050565b600082601f83011261144757611446611318565b5b81356114578482602086016113c9565b91505092915050565b6000806040838503121561147757611476610fb6565b5b600083013567ffffffffffffffff81111561149557611494610fbb565b5b6114a185828601611432565b92505060206114b285828601611009565b9150509250929050565b600080fd5b600067ffffffffffffffff8211156114dc576114db61131d565b5b6114e5826110ac565b9050602081019050919050565b82818337600083830152505050565b600061151461150f846114c1565b61137d565b9050828152602081018484840111156115305761152f6114bc565b5b61153b8482856114f2565b509392505050565b600082601f83011261155857611557611318565b5b8135611568848260208601611501565b91505092915050565b6000806040838503121561158857611587610fb6565b5b600083013567ffffffffffffffff8111156115a6576115a5610fbb565b5b6115b285828601611543565b925050602083013567ffffffffffffffff8111156115d3576115d2610fbb565b5b6115df85828601611543565b9150509250929050565b7f4e487b7100000000000000000000000000000000000000000000000000000000600052602260045260246000fd5b6000600282049050600182168061163057607f821691505b602082108103611643576116426115e9565b5b50919050565b7f4e487b7100000000000000000000000000000000000000000000000000000000600052603260045260246000fd5b60008190508160005260206000209050919050565b60006020601f8301049050919050565b600082821b905092915050565b6000600883026116da7fffffffffffffffffffffffffffffffffffffffffffffffffffffffffffffffff8261169d565b6116e4868361169d565b95508019841693508086168417925050509392505050565b6000819050919050565b600061172161171c61171784611198565b6116fc565b611198565b9050919050565b6000819050919050565b61173b83611706565b61174f61174782611728565b8484546116aa565b825550505050565b600090565b611764611757565b61176f818484611732565b505050565b5b818110156117935761178860008261175c565b600181019050611775565b5050565b601f8211156117d8576117a981611678565b6117b28461168d565b810160208510156117c1578190505b6117d56117cd8561168d565b830182611774565b50505b505050565b600082821c905092915050565b60006117fb600019846008026117dd565b1980831691505092915050565b600061181483836117ea565b9150826002028217905092915050565b61182d82611066565b67ffffffffffffffff8111156118465761184561131d565b5b6118508254611618565b61185b828285611797565b600060209050601f83116001811461188e576000841561187c578287015190505b6118868582611808565b8655506118ee565b601f19841661189c86611678565b60005b828110156118c45784890151825560018201915060208501945060208101905061189f565b868310156118e157848901516118dd601f8916826117ea565b8355505b6001600288020188555050505b505050505050565b7f4e487b7100000000000000000000000000000000000000000000000000000000600052601160045260246000fd5b600061193082611198565b91507fffffffffffffffffffffffffffffffffffffffffffffffffffffffffffffffff8203611962576119616118f6565b5b600182019050919050565b600061197882611198565b915061198383611198565b925082820190508082111561199b5761199a6118f6565b5b92915050565b60008160601b9050919050565b60006119b9826119a1565b9050919050565b60006119cb826119ae565b9050919050565b6119e36119de82610fe0565b6119c0565b82525050565b6000819050919050565b611a046119ff82611198565b6119e9565b82525050565b6000611a1682856119d2565b601482019150611a2682846119f3565b6020820191508190509392505050565b600081519050919050565b600081905092915050565b6000611a5782611a36565b611a618185611a41565b9350611a71818560208601611082565b80840191505092915050565b6000611a898284611a4c565b915081905092915050565b6000819050919050565b611aa781611a94565b8114611ab257600080fd5b50565b600081519050611ac481611a9e565b92915050565b600060208284031215611ae057611adf610fb6565b5b6000611aee84828501611ab5565b9150509291505056fea2646970667358221220370ee707c9ca22fa0671a31e37f69935cfe0359a43e571371a15966b99bcdec264736f6c63430008110033",
  "immutableReferences": {},
  "source": "// SPDX-License-Identifier: GPL-3.0\r\n\r\npragma solidity >=0.7.0 <0.9.0;\r\n\r\ncontract DrugVerify {\r\n    struct drug {\r\n        bool drug_id;\r\n        string drug_name;\r\n        string drug_info_json;\r\n        string drug_status;\r\n        // string drug_current_location;\r\n        bool isSold;\r\n        address manfacturer;\r\n        address distributer;\r\n        address verifier;\r\n    }\r\n    mapping(address => address[]) manufacturer_drugs;  // List of manufacturer's drug\r\n    mapping(address => mapping(uint => address[])) distributer_drugs;  // List of distributer's drug\r\n    mapping(address => mapping(uint => address[])) verifier_drugs;  // List of verifier's drug\r\n    mapping(uint => mapping(string => string)) timestamp;\r\n    mapping(address => drug) public drugs;  // List of drugs deployed into blockchain\r\n\r\n    uint public no_dis_drugs_index = 0;\r\n    uint public no_verifier_drugs_index = 0;\r\n\r\n    // New Drug addition into blockchain\r\n    function addDrug(string memory name, string memory info_json) public {\r\n        address uniqueId = address(bytes20(sha256(abi.encodePacked(msg.sender,block.timestamp))));\r\n        // drugs.push(drug({\r\n        //     drug_id: drugs.length,\r\n        //     drug_name: name,\r\n        //     drug_info_json: info_json,\r\n        //     drug_status: \"manufactured\",\r\n        //     isSold: false,\r\n        //     manfacturer: msg.sender,\r\n        //     distributer: 0x0000000000000000000000000000000000000000,\r\n        //     verifier: 0x0000000000000000000000000000000000000000\r\n        // }));\r\n        drugs[uniqueId].drug_id = true;\r\n        drugs[uniqueId].drug_name = name;\r\n        drugs[uniqueId].drug_info_json = info_json;\r\n        drugs[uniqueId].drug_status = \"Manufactured\";\r\n        drugs[uniqueId].isSold = false;\r\n        drugs[uniqueId].manfacturer = msg.sender;\r\n        drugs[uniqueId].distributer = 0x0000000000000000000000000000000000000000;\r\n        drugs[uniqueId].verifier = 0x0000000000000000000000000000000000000000;\r\n        manufacturer_drugs[msg.sender].push(uniqueId);\r\n    }\r\n\r\n    // Returns drug list of manufacturer(msg.sender)\r\n    function ManufacturerDrugsList() public view returns (address[] memory) {\r\n        return manufacturer_drugs[msg.sender];\r\n    }\r\n\r\n    // Assign drug ids to a particular distributer\r\n    function drugDispatchToDistributer(address[] memory drug_ids, address _distributer) public {\r\n        for(uint i=0; i<drug_ids.length; i++)\r\n        {\r\n            drugs[drug_ids[i]].drug_status = \"Dispatched to distributer\";\r\n            drugs[drug_ids[i]].distributer = _distributer;\r\n            // distributer_drugs[_distributer].push(drug_ids[i]);\r\n        }\r\n        distributer_drugs[_distributer][no_dis_drugs_index] = drug_ids;\r\n        no_dis_drugs_index+=1;\r\n    }\r\n    function getDistributerDrugsAddressesList(address _distributer, uint index) public view returns(address[] memory) {\r\n        return distributer_drugs[_distributer][index];\r\n    }\r\n\r\n    // function getDistributerDrugsList(address _distributer, uint index) public view returns(drug[] memory) {\r\n    //     drug[] memory tempDrugs;\r\n    //     uint inc = 0;\r\n    //     for(uint i=0; i<distributer_drugs[_distributer][index].length; i++)\r\n    //     {\r\n    //         tempDrugs[inc] = drugs[distributer_drugs[_distributer][index][i]];\r\n    //         inc++;\r\n    //     }\r\n    //     return tempDrugs;\r\n    // }\r\n\r\n\r\n    function drugDispatchToVerifier(address[] memory drug_ids, address _verifier) public {\r\n        for(uint i=0; i<drug_ids.length; i++)\r\n        {\r\n            drugs[drug_ids[i]].drug_status = \"Dispatched to verifer\";\r\n            drugs[drug_ids[i]].distributer = _verifier;\r\n            // verifier_drugs[_verifier].push(drug_ids[i]);\r\n        }\r\n        verifier_drugs[_verifier][no_verifier_drugs_index] = drug_ids;\r\n        no_verifier_drugs_index+=1;\r\n    }\r\n    function getVerifierDrugAddressesList(address _verifier, uint index) public view returns(address[] memory) {\r\n        return verifier_drugs[_verifier][index];\r\n    }\r\n}",
  "sourcePath": "D:\\Major project\\truffle project\\contracts\\DrugVerify.sol",
  "compiler": {
    "name": "solc",
    "version": "0.8.17+commit.8df45f5f.Emscripten.clang"
  },
  "schemaVersion": "3.4.11",
  "updatedAt": "2023-02-05T17:12:47.463Z",
  "networkType": "ethereum",
  "devdoc": {
    "kind": "dev",
    "methods": {},
    "version": 1
  },
  "userdoc": {
    "kind": "user",
    "methods": {},
    "version": 1
  }
}